:10000300EF70038DFA22EFB401038DFB22EFB402EC
:0600130004AF058FFC2282
:10003E00900018EBF0A3EAF0A3E9F0AD07EDD3942E
:10004E000340030201F4ED64037064C2DEF5F9F5BA
:10005E00E9900018E0FBA3E0FAA3E0F9120308FF11
:10006E00E5A254CF4FF5A2900001120321FFE5D96E
:10007E0054F14FF5D99000041203215401FFE5D934
:10008E0054FE4FF5D9900005120321B40104D2BFDE
:10009E008002C2BF900018E0FBA3E0FAA3E0F99043
:1000AE000008120321640160030201F4D2DE2290E3
:1000BE000018E0FBA3E0FAA3E02404F9E43AFA12F4
:1000CE000308543112034E900018E0FBA3E0FAA38C
:1000DE00E0F9900002120321C39448400FE9240472
:1000EE00F9E43AFA12030854CF12034EED704F9012
:1000FE000018E0FBA3E0FAA3E0F99000041203213C
:10010E00FF900002120321FE4FF5DA900003120356
:10011E0021FFE5F2543F4FF5F2900006120360FB0B
:10012E00AAF0900003EAF0A3EBF0C200900000EEFC
:10013E00F0900009EAF0A3EBF0F5EAEAF5FAED64C7
:10014E0001704F900018E0FBA3E0FAA3E0F99000D5
:10015E0004120321FF900002120321FE4FF5DB90E3
:10016E000003120321FFE5F3543F4FF5F390000611
:10017E00120360FBAAF0900005EAF0A3EBF0C201B7
:10018E00900001EEF090000BEAF0A3EBF0F5EBEA35
:10019E00F5FBED6402704F900018E0FBA3E0FAA3AC
:1001AE00E0F9900004120321FF900002120321FED9
:1001BE004FF5DC900003120321FFE5F4543F4FF599
:1001CE00F4900006120360FDACF0900007ECF0A373
:1001DE00EDF0C202900002EEF090000DECF0A3EDF7
:0701EE00F0F5ECECF5FC223A
:03003B000201F5CA
:1001F500C0E0C083C082C0D075D000C004C005C0B7
:1002050006C00730D84BC2D8900000E0FDC3944823
:10021500401F900003E0FEA3E0FF90000AE02FF0EE
:10022500900009E03EF0E0FEA3E0F5EAEEF5FA8085
:1002350020ED701DAFFA900009F0A3EFF0E0FEADE0
:10024500EA7C00E42DFFEC3E900009F0A3EFF0D22C
:100255000030D94BC2D9900001E0FDC39448401F3E
:10026500900005E0FEA3E0FF90000CE02FF0900069
:100275000BE03EF0E0FEA3E0F5EBEEF5FB8020EDB4
:10028500701DAFFB90000BF0A3EFF0E0FEADEB7C33
:1002950000E42DFFEC3E90000BF0A3EFF0D201300F
:1002A500DA4BC2DA900002E0FDC39448401F90008B
:1002B50007E0FEA3E0FF90000EE02FF090000DE0B8
:1002C5003EF0E0FEA3E0F5ECEEF5FC8020ED701DC0
:1002D500AFFC90000DF0A3EFF0E0FEADEC7C00E488
:1002E5002DFFEC3E90000DF0A3EFF0D20230DF02BF
:1002F500C2DFD007D006D005D004D0D0D082D083BD
:03030500D0E03213
:100398009000107408F0E490000FF0900013F0A3A0
:1003A800F0900017F07B017A00790F7F0312003E6E
:1003B8009000117442F0E4A3F0A3F090001574804B
:1003C800F0A3E4F07B017A00790FFF12003ED2DE41
:0103D8002202
:1003D90012039890001B7480F0C203FDE4FF120021
:1003E9000330030F90001BE014F0D394105011C296
:1003F90003800D90001BE004F0C394F04002D20387
:0C04090090001BE0FDE4FF12000380D512
:03000000020019E2
:0C001900787FE4F6D8FD7581200203D941
:10030800BB010689828A83E0225002E722BBFE02F3
:09031800E32289828A83E4932226
:10032100BB010CE58229F582E5833AF583E0225091
:1003310006E92582F8E622BBFE06E92582F8E222DB
:0D034100E58229F582E5833AF583E49322F5
:10034E00BB010689828A83F0225002F722BBFE018E
:02035E00F32288
:10036000BB0110E58229F582E5833AF583E0F5F0DB
:10037000A3E0225009E92582F886F008E622BBFEB8
:100380000AE92582F8E2F5F008E222E5832AF583FE
:08039000E993F5F0A3E99322C3
:00000001FF
